:4000000080673030303030307e3030307e3030307e3030307e3030307e3030307d08bc7e7d02e57e7e3030307e3030307e3030307e3030307e3030307e3030307e30303070
:4000400030303030303030303030303030303030303030303030303030303030303030307e3030307e303030711062e38770ef62e33841fefb50134e62e33855f80055f938
:4000800000711062e00270ef62e338627105627505627905627d057c027250005501093c010fa0053f018ff8500157ad5501003c0100a00b08283f01187509008ff2711035
:4000c00070ef62e000711062e00070ef62e2007c08638fff50107f3030303030303030303030303030303030303030303030303030303030303030303030303030303030f5
:4001000030303030303030303030303030303030303030303030303030303030303030303030303030303030303030303030303030303030303030303030303030303030bf
:40014000303030303030303030303030303030304f4b00230021ff2200606b660063156500e600e700d600b000b100b200b333b433b508b600b855b900ba10bb33bc33bd52
:4001800000be00ff20312117224461006900600062006733683363006600d100d300d000d200e1ffe200dfffde02dd00ff70ef62000071106200006201ff70ef6203fe623d
:4001c0000200711062020162030070ef62010162040071106204386205c770ef6207c4620610711062060062070070ef620500620800711062087f62098070ef620b8062b3
:400200000a007110620a00620b0070ef620900620c007110620c00620d0070ef620f00620e007110620e00620f0070ef620d00621000711062100062110070ef6213006246
:400240001200711062120062130070ef621100621400711062140062150070ef621700621600711062160062170070ef62150070ef7f5502005504385505c75506c4550356
:400280000055077f5508807c028e7c01ad7f1070ef500067500157537c02a9500167500157847c02a970ef207f380210084f56fc00d00456fc01182070ef62e3001008284a
:4002c00039ffa01f4f48fc01a003711054fd18207509001008284f59fd610018207509008fd738fc7f7e43e1017f41e1fe7f4323017f4123fe7f60217f60227f5d227f4f5d
:400300005d22084123fe71105d210862210070ef5d205d22085200602271105201602170ef4323011838fe7f081028b00420187f903c201875dff2748fef30313233343515
:40034000363738394142434445460867676767210fffe7901918210fffe090127f4b9fea5b9fe77f5200a0069004758ff87f905f0867676767210f903818210f4040409001
:40038000307f904b0867676767210f900918210f40404090017f082603805103600818210f29102a036008530340218f530360087f082603802e03205103600818210f29f9
:4003c000302a03600853034021af530360087f08260380510360082607f051077110600870ef2e034051036008401057ff2e03505103600840405d08082603c051036008c9
:400400004040402e03505103600840402603c051036008182108a00479bfd3202e077f51077110600870ef187f2607802e077f2608805107711060085108600970ef50fae4
:40044000906350fa905f50039f4c5052905750039f44905f905d905b50039f3a505a904550029f32505a903d50089f16505a903550019f0e505a902d50069f06500e9f026c
:40048000502c9efe50089efa500c9ef650039ef2505a90117f80c094d4210310fff74f03ff209ede7f900c78bffc7f08193a7c010101010871105de070ef21073905d006cf
:4004c000ffe978bffe187f5001800350002900a0062602df80042e0220510260047f360220510260047f5102732120a00350017f5001800350002900a0062602f780042e78
:400500000208510260047f360208510260047f5102732108a00350017f2e05032604fc2606fc510660077110510560055104600470ef2602fc510260047f7f4f52fd642909
:4005400001550f0048f901b00591ae80039177470f01a0202e0f10107bfab004260fef9249201052fc0820511054002077fc48faffbfe548f902b00392b65000470f01a061
:400580000350017f642901550f0048fd01b005916880039131470f01a01e2e0f10107bfeb004260fef9203201059005110540020770048feffbfe748fd02b00392725000d7
:4005c000470f01a00350017f4f52fd64550f0048f901b0059123800390ec551100470f01a01a1052fc082052005310913620470f01a00e761177fc7bfabfe848f902b00377
:40060000922e51117f64550f0048fd01b00590e9800390b2551100470f01a0181059005200531090fe20470f01a00e761177007bfebfea48fd02b00391f651117f4f52fdb2
:4006400064550f0048f901b00590ae80039077551100470f01a01d1052fb59fc28531090c220470f01a012761177fcd00377fb7bfabfe548f902b00391b651117f64550f83
:400680000048fd01b00590718003903a551100470f01a01d1052ff5900285310908520470f01a01276117700d00377ff7bfebfe548fd02b003917951117f6479d004900664
:4006c0007f290190017f0871102e04022604fe51046004500c91882604fd5104600470ef490402affc500c917618900d7f6479d00490067f290190017f7110082e04015151
:40070000046004500591581870ef531071102e04025104600470ef5002914490067f531090017f5512087a1271102e04025104600470ef6b107110c00a2e04015104600443
:4007400080082604fe51046004500591122604fd5104600470ef490402affc500591003c1200bfc390017f71102e0402510460042604fe51046004500c90e42604fd51047e
:40078000600470ef490402affc260ffe490401b0042e0f01500590c7510f21017f550f0021ffa0072e0f1090017f5512087a126b1071102e040251046004500590a1260440
:4007c000fd5104600470ef490402affc5002908f2610fe490401a0042e10013c1200bfce90017f71102e04025104600470ef470f107110a00a2e040151046004800826042d
:40080000fe51046004500290562604fd5104600470ef490402affc5005904471102e0402510460042604fe5104600470ef51107f71102e040351046004500c90222604fd35
:400840005104600470ef490402affc7110500c900e2604fe510460045005900370ef7f78bffe7f901510570050017c049950010850505c187c0328208fff7101107c05193c
:400880007c04297c02ee7c04f47c04cb207f104f38035109040e510e60e8520260e9405deb5301510b12095300520160e8510060e9405deb1201540038fd207f7e303030cf
:4008c00030303030303030303030303030303030303030303030303030303030303030303030303030303030303030303030303030303030303030303030303030303030f8
:4009000030303030303030303030303030303030303030303030303030303030303030303030303030303030303030303030303030303030303030303030303030303030b7
:400940003030303030303030303030303030303030303030303030303030303030303030303030303030303030303030303030303030303030303030303030303030303077
:400980003030303030303030303030303030303030303030303030303030303030303030303030303030303030303030303030303030303030303030303030303030303037
:020000040010ea
:020000040020da
:02000000036398
:00000001ff
