:4000000080673030303030307e3030307e3030307e3030307e3030307e3030307d08d67e7d02eb7e7e3030307e3030307e3030307e3030307e3030307e3030307e30303050
:4000400030303030303030303030303030303030303030303030303030303030303030307e3030307e303030711062e38770ef62e33841fefb50144e62e33855f80055f937
:4000800000711062e00270ef62e338627105627505627905627d057c0278500055050d3c0510a0053f058ff8500157b35505003c0500a00b08283f05187509008ff271100c
:4000c00070ef62e000711062e00070ef62e2007c08698fff50107f3030303030303030303030303030303030303030303030303030303030303030303030303030303030ef
:4001000030303030303030303030303030303030303030303030303030303030303030303030303030303030303030303030303030303030303030303030303030303030bf
:4001400030303030303030303030303030303030576572743a004f4b00230021ff2200606b660063156500e600e700d600b000b100b200b333b433b508b600b855b900ba20
:4001800010bb33bc33bd00be00ff20312117224461006900600062006733683363006600d100d300d000d200e1ffe200dfffde02dd00ff70ef62000071106200006201ffb7
:4001c00070ef6203fe620200711062020162030070ef62010162040071106204386205c770ef6207c4620610711062060062070070ef620500620800711062087f6209803d
:4002000070ef620b80620a007110620a00620b0070ef620900620c007110620c00620d0070ef620f00620e007110620e00620f0070ef620d006210007110621000621100ce
:4002400070ef621300621200711062120062130070ef621100621400711062140062150070ef621700621600711062160062170070ef62150070ef7f550600550838550952
:40028000c7550ac4550700550b7f550c807c02947c01b37f1070ef500067500157597c02af5001675001578a7c02af70ef207f380210084f56fc00d00456fc01182070ef5d
:4002c00062e30010082839ffa01f4f48fc01a003711054fd18207509001008284f59fd610018207509008fd738fc7f7e43e1017f41e1fe7f4323017f4123fe7f60217f60c6
:40030000227f5d227f4f5d22084123fe71105d210862210070ef5d205d22085200602271105201602170ef4323011838fe7f081028b00420187f903c201875dff2748fef56
:40034000303132333435363738394142434445460867676767210fffe7901918210fffe090127f4b9fea5b9fe77f5200a0069004758ff87f905f0867676767210f90381852
:40038000210f40404090307f904b0867676767210f900918210f40404090017f082607805107600818210f29102a076008530740218f530760087f082607802e0720510732
:4003c000600818210f29302a07600853074021af530760087f0826078051076008260bf0510b7110600870ef2e074051076008401057ff2e07505107600840405d08082643
:4004000007c0510760084040402e07505107600840402607c051076008182108a00479bfd3202e0b7f510b7110600870ef187f260b802e0b7f260c80510b71106008510c43
:40044000600970ef50fa906350fa905f50039f4c5052905750039f44905f905d905b50039f3a505a904550029f32505a903d50089f16505a903550019f0e505a902d5006fe
:400480009f06500e9f02502c9efe50089efa500c9ef650039ef2505a90117f80c094d4210310fff74f03ff209ede7f900c78bffc7f08193a7c010101010871105de070ef67
:4004c00021073905d006ffe978bffe187f5001800350002900a0062606df80042e0620510660047f360620510660047f5106732120a00350017f5001800350002900a006f5
:400500002606f780042e0608510660047f360608510660047f5106732108a00350017f2e09032608fc260afc510a60077110510960055108600470ef2606fc510660047faa
:400540007f4f52fd64290155100048f901b00591ae80039177471001a0202e1010107bfab0042610ef9249201052fc0820511154002077fc48faffbfe548f902b00392b6f9
:400580005000471001a00350017f64290155100048fd01b005916880039131471001a01e2e1010107bfeb0042610ef9203201059005111540020770048feffbfe748fd0291
:4005c000b00392725000471001a00350017f4f52fd6455100048f901b0059123800390ec551200471001a01a1052fc082052005311913620471001a00e761277fc7bfabf47
:40060000e848f902b003922e51127f6455100048fd01b00590e9800390b2551200471001a0181059005200531190fe20471001a00e761277007bfebfea48fd02b00391f64c
:4006400051127f4f52fd6455100048f901b00590ae80039077551200471001a01d1052fb59fc28531190c220471001a012761277fcd00377fb7bfabfe548f902b00391b6a6
:4006800051127f6455100048fd01b00590718003903a551200471001a01d1052ff5900285311908520471001a01276127700d00377ff7bfebfe548fd02b003917951127ffa
:4006c0006479d00490067f290190017f0871102e08022608fe51086004500c91882608fd5108600470ef490402affc500c917618900d7f6479d00490067f290190017f7192
:4007000010082e080151086004500591581870ef531171102e08025108600470ef5002914490067f531190017f5513087a1371102e08025108600470ef6b117110c00a2e48
:4007400008015108600480082608fe51086004500591122608fd5108600470ef490402affc500591003c1300bfc390017f71102e0802510860042608fe51086004500c90f7
:40078000e42608fd5108600470ef490402affc2610fe490401b0042e1001500590c7511021017f55100021ffa0072e101090017f5513087a136b1171102e08025108600478
:4007c000500590a12608fd5108600470ef490402affc5002908f2611fe490401a0042e11013c1300bfce90017f71102e08025108600470ef4710107110a00a2e0801510877
:40080000600480082608fe51086004500290562608fd5108600470ef490402affc5005904471102e0802510860042608fe5108600470ef51117f71102e08035108600450db
:400840000c90222608fd5108600470ef490402affc7110500c900e2608fe510860045005900370ef7f78bffe7f901c506308902b38ff10570050017c049f50010850565c10
:40088000187c032e208fff7101107c051f7c042f7c02f47c04fa7c04d1207f104f380510570550007c049f50010850505c187c032e20500008500a0852fc5304500008515f
:4008c0000408500008107c090e38fa1051057c036a2038fb207f7e104f7c08de207f50005301530255001066fc6cfb6b016b0251011bfa51021bf9c009530252fa1c0177d4
:40090000fc7a00bfe3510154fa510254f97f104f380952fa540352f954023df900b0223dfa00b01d52fc530450303f0452fc0101530450003f0452fc530452fb530581483b
:4009400052fa110052f931801980d0263df700b0213df80ab01c56060152037353045202735305510401015403510509005402800456060052fc540152f70852f808520207
:40098000085203087c08d738fe18530418530551045408510554075009130852073180530250801a02c01d5201530452005305510401015401510509005400520801303fe7
:4009c00004801b5201530452005305510401015401510509005400520801573f0452f70852f8085202085203087c08d718540318540238fe3d0200bf803d0300bf7b3d06ab
:400a000000a0195201530452005305510401015401510509005400502d3f045201530452005305510401ff5401510509ff540050003f0452fc5405803d520553043e04549f
:400a4000065205530452045305510401015405510509005404520153033e033f045201530452005305510401ff5401510509ff540052063f045201530552053a05cfbb5218
:400a8000fc530452fb530538f7207f303030303030303030303030303030303030303030303030303030303030303030303030303030303030303030303030303030303080
:400ac00030303030303030303030303030303030303030303030303030303030303030303030303030303030303030303030303030303030303030303030303030303030f6
:400b000030303030303030303030303030303030303030303030303030303030303030303030303030303030303030303030303030303030303030303030303030303030b5
:400b40003030303030303030303030303030303030303030303030303030303030303030303030303030303030303030303030303030303030303030303030303030303075
:400b80003030303030303030303030303030303030303030303030303030303030303030303030303030303030303030303030303030303030303030303030303030303035
:020000040010ea
:020000040020da
:02000000230ccf
:00000001ff
