:4000000080673030303030307e3030307e3030307e3030307e3030307e3030307d08ca7e7d02e57e7e3030307e3030307e3030307e3030307e3030307e3030307e30303062
:4000400030303030303030303030303030303030303030303030303030303030303030307e3030307e303030711062e38770ef62e33841fefb500f4e62e33855f80055f93c
:4000800000711062e00270ef62e338627105627505627905627d057c027250005500083c000ba0053f008ff8500157ad5500003c0000a00b08283f00187509008ff2711040
:4000c00070ef62e000711062e00070ef62e2007c08638fff50107f3030303030303030303030303030303030303030303030303030303030303030303030303030303030f5
:4001000030303030303030303030303030303030303030303030303030303030303030303030303030303030303030303030303030303030303030303030303030303030bf
:40014000303030303030303030303030303030304f4b00230021ff2200606b660063156500e600e700d600b000b100b200b333b433b508b600b855b900ba10bb33bc33bd52
:4001800000be00ff20312117224461006900600062006733683363006600d100d300d000d200e1ffe200dfffde02dd00ff70ef62000071106200006201ff70ef6203fe623d
:4001c0000200711062020162030070ef62010162040071106204386205c770ef6207c4620610711062060062070070ef620500620800711062087f62098070ef620b8062b3
:400200000a007110620a00620b0070ef620900620c007110620c00620d0070ef620f00620e007110620e00620f0070ef620d00621000711062100062110070ef6213006246
:400240001200711062120062130070ef621100621400711062140062150070ef621700621600711062160062170070ef62150070ef7f5501005503385504c75505c455025b
:400280000055067f5507807c028e7c01ad7f1070ef500067500157537c02a9500167500157847c02a970ef207f380210084f56fc00d00456fc01182070ef62e3001008284c
:4002c00039ffa01f4f48fc01a003711054fd18207509001008284f59fd610018207509008fd738fc7f7e43e1017f41e1fe7f4323017f4123fe7f60217f60227f5d227f4f5d
:400300005d22084123fe71105d210862210070ef5d205d22085200602271105201602170ef4323011838fe7f081028b00420187f903c201875dff2748fef30313233343515
:40034000363738394142434445460867676767210fffe7901918210fffe090127f4b9fea5b9fe77f5200a0069004758ff87f905f0867676767210f903818210f4040409001
:40038000307f904b0867676767210f900918210f40404090017f082602805102600818210f29102a026008530240218f530260087f082602802e02205102600818210f2901
:4003c000302a02600853024021af530260087f08260280510260082606f051067110600870ef2e024051026008401057ff2e02505102600840405d08082602c051026008d6
:400400004040402e02505102600840402602c051026008182108a00479bfd3202e067f51067110600870ef187f2606802e067f2607805106711060085107600970ef50faef
:40044000906350fa905f50039f4c5052905750039f44905f905d905b50039f3a505a904550029f32505a903d50089f16505a903550019f0e505a902d50069f06500e9f026c
:40048000502c9efe50089efa500c9ef650039ef2505a90117f80c094d4210310fff74f03ff209ede7f900c78bffc7f08193a7c010101010871105de070ef21073905d006cf
:4004c000ffe978bffe187f5001800350002900a0062601df80042e0120510160047f360120510160047f5101732120a00350017f5001800350002900a0062601f780042e7f
:400500000108510160047f360108510160047f5101732108a00350017f2e04032603fc2605fc510560077110510460055103600470ef2601fc510160047f7f4f52fd642916
:4005400001550b0048f901b00591ae80039177470b01a0202e0b10107bfab004260bef9249201052fc0820510c54002077fc48faffbfe548f902b00392b65000470b01a079
:400580000350017f642901550b0048fd01b005916880039131470b01a01e2e0b10107bfeb004260bef920320105900510c540020770048feffbfe748fd02b00392725000eb
:4005c000470b01a00350017f4f52fd64550b0048f901b0059123800390ec550d00470b01a01a1052fc08205200530c913620470b01a00e760d77fc7bfabfe848f902b00393
:40060000922e510d7f64550b0048fd01b00590e9800390b2550d00470b01a0181059005200530c90fe20470b01a00e760d77007bfebfea48fd02b00391f6510d7f4f52fdd2
:4006400064550b0048f901b00590ae80039077550d00470b01a01d1052fb59fc28530c90c220470b01a012760d77fcd00377fb7bfabfe548f902b00391b6510d7f64550ba3
:400680000048fd01b00590718003903a550d00470b01a01d1052ff590028530c908520470b01a012760d7700d00377ff7bfebfe548fd02b0039179510d7f6479d00490067c
:4006c0007f290190017f0871102e03022603fe51036004500c91882603fd5103600470ef490402affc500c917618900d7f6479d00490067f290190017f7110082e03015157
:40070000036004500591581870ef530c71102e03025103600470ef5002914490067f530c90017f550e087a0e71102e03025103600470ef6b0c7110c00a2e0301510360045e
:4007400080082603fe51036004500591122603fd5103600470ef490402affc500591003c0e00bfc390017f71102e0302510360042603fe51036004500c90e42603fd51038c
:40078000600470ef490402affc260bfe490401b0042e0b01500590c7510b21017f550b0021ffa0072e0b1090017f550e087a0e6b0c71102e030251036004500590a1260363
:4007c000fd5103600470ef490402affc5002908f260cfe490401a0042e0c013c0e00bfce90017f71102e03025103600470ef470b107110a00a2e0301510360048008260343
:40080000fe51036004500290562603fd5103600470ef490402affc5005904471102e0302510360042603fe5103600470ef510c7f71102e030351036004500c90222603fd43
:400840005103600470ef490402affc7110500c900e2603fe510360045005900370ef7f78bffe7f901510570050017c049950010850505c187c0328208fff7101107c05193f
:40088000570050487c06ed50007c071e7c08307c04297c02ee7c04f47c04cb207f10570150487c06ba50017c079d50017c079d2053081050017c079d2053091050007c0749
:4008c0009d20530a107c0830207f7e30303030303030303030303030303030303030303030303030303030303030303030303030303030303030303030303030303030300d
:4009000030303030303030303030303030303030303030303030303030303030303030303030303030303030303030303030303030303030303030303030303030303030b7
:400940003030303030303030303030303030303030303030303030303030303030303030303030303030303030303030303030303030303030303030303030303030303077
:400980003030303030303030303030303030303030303030303030303030303030303030303030303030303030303030303030303030303030303030303030303030303037
:4009c00030303030303030303030303030303030303030303030303030303030303030303030303030303030303030303030303030303030303030303030303030303030f7
:020000040010ea
:020000040020da
:02000000007f7f
:00000001ff
