:4000000080673030303030307e3030307e3030307e3030307e3030307e3030307e3030307e3030307d03297e7d05e07e7e3030307d05e67e7d05e37e7e3030307e3030305d
:4000400030303030303030303030303030303030303030303030303030303030303030307e3030307e303030711062e38770ef62e33841fefb50104e62e33855f80055f93b
:4000800000711062e00270ef62e338627105627505627905627d057c02c2500055030e3c030ea0053f038ff8500157fb5503003c0300a00b08283f03187509008ff2711087
:4000c00070ef62e000711062e00070ef62e2007c07148fff50107f303030303030303030303030303030303030303030303030303030303030303030303030303030303045
:4001000030303030303030303030303030303030303030303030303030303030303030303030303030303030303030303030303030303030303030303030303030303030bf
:4001400030303030303030303030303030303030546573740080908100826083f084908500866087f02b0029002a003700350036002f002d002e003300310032002300217f
:400180000022002700250026006028660063056500e638e710d600b000b100b200b333b433b508b600b855b900ba10bb33bc33bd00be00ff282129402a403421355036405f
:4001c0002c012d102e4030213130324020012100220024212530260461006900600062006733683363006600d100d300d000d200e1ffe200dfffde02dd00ff06f470ef62f4
:40020000000071106200006201fe70ef6203ff620200711062020062030070ef62010062040071106204106205ef70ef6207ef620610711062060062070070ef62050062eb
:400240000800711062087f62098070ef620b80620a007110620a00620b0070ef620900620c007110620c00620d0070ef620f00620e007110620e00620f0070ef620d0062a7
:400280001000711062100062110070ef621300621200711062120062130070ef621100621400711062140062150070ef621700621600711062160062170070ef6215007058
:4002c000ef7f55040055057f5506807c02d27c01fd7f1070ef500067500157557c02ed500167500157b47c02ed70ef207f380210084f56fc00d00456fc01182070ef62e339
:400300000010082839ffa01f4f48fc01a003711054fd18207509001008284f59fd610018207509008fd738fc7f7e081028b00420187f903c201875dff2748fef3031323387
:400340003435363738394142434445460867676767210fffe7901918210fffe090127f4b9fea5b9fe77f5200a0069004758ff87f905f0867676767210f903818210f404068
:400380004090307f904b0867676767210f900918210f40404090017f082604805104600818210f29102a046008530440218f530460087f082604802e042051046008182159
:4003c0000f29302a04600853044021af530460087f08260480510460082605f051057110600870ef2e044051046008401057ff2e04505104600840405d08082604c05104f2
:4004000060084040402e04505104600840402604c051046008182108a00479bfd3202e057f51057110600870ef187f2605802e057f2606805105711060085106600970efd0
:4004400050fa906350fa905f50039f4c5052905750039f44905f905d905b50039f3a505a904550029f32505a903d50089f16505a903550019f0e505a902d50069f06500ec3
:400480009f02502c9efe50089efa500c9ef650039ef2505a90117f80c094d4210310fff74f03ff209ede7f900c78bffc7f08193a7c010101010871105de070ef2107390504
:4004c000d006ffe978bffe187f1059009fcd203dfe00b005500080113dfe06d00752fe15fe8006500617fe059e867bffbfe27f4f1052fd59fc9fa4203dfa00b0055000805b
:40050000113dfa06d00752fa15fa8006500617fa059e5d7bfbbfe27f210308ff7a03009e633dfe00b005502080133dfe09d00952fe7856fe00800617fe0850079e32187889
:400540007bffbfd77f4f52fd210308ff4a03fc9e333dfa00b005502080133dfa09d00952fa7856fa00800617fa0850079e0218787bfbbfd77f4f080850409e0856000156fa
:40058000010852003b01d0055000800350ff9de07b01bfef77003d0009bfe51818500c9de37f0010181c1e1f1f001008040201004f3803540250409dcb560000560108527c
:4005c000003d0200b005ffda8003ffdd9da27b01bfee77003d0007bfe438fd500c9da57f76077e76087e412bfe4137fe43822043862043831043871071014070fe085d28b5
:400600005d2a7873d0037607530a510753095d345d367873d0037608530c5108530b6229ff6235ff622b016237015507fe5508fe4183ef4187ef4182df4186df470980b042
:400640000e50022209a00850015309550aff68096e0a68096e0a470b80b00e5002220ba0085001530b550cff680b6e0c680b6e0c182e0d107e21034f085d8321fc2b00291d
:40068000f060835d8721fc2b0029f06087187f4183fc4187fc7f903d622e00623204510f602d5004020e60315507fe5508fe5d2e6229ff6235ff4183ef4187ef4182df411d
:4006c00086df432b05433705432f0143e11043e10443e1207f412ffe412bfe4137fe43822043862043831043871041e1ef41e1fb41e1df7f510d21107f260def510a7f513c
:400700000a7f260def510c7f510c7f260def7f530f5a0e7f104f38075502505503015a01105500005103580208283f011875090076003c0005bff2207101107c042b500352
:400740007c0675570050647c070f7c069620803350fb105802082853031875090028203c0300afed107c06ff205405107c070220540610570550007c049b201051037c0313
:4007800066208fcd38f9208fff3030303030303030303030303030303030303030303030303030303030303030303030303030303030303030303030303030303030303028
:4007c00030303030303030303030303030303030303030303030303030303030303030303030303030303030303030303030303030303030303030303030303030303030f9
:4008000030303030303030303030303030303030303030303030303030303030303030303030303030303030303030303030303030303030303030303030303030303030b8
:400840003030303030303030303030303030303030303030303030303030303030303030303030303030303030303030303030303030303030303030303030303030303078
:400880003030303030303030303030303030303030303030303030303030303030303030303030303030303030303030303030303030303030303030303030303030303038
:020000040010ea
:020000040020da
:02000000ee5ab6
:00000001ff
