:4000000080673030303030307e3030307e3030307e3030307e3030307e3030307d097a7e7d02e87e7e3030307e3030307e3030307e3030307e3030307e3030307e303030ae
:4000400030303030303030303030303030303030303030303030303030303030303030307e3030307e303030711062e38770ef62e33841fefb50184e62e33855f80055f933
:4000800000711062e00270ef62e338627105627505627905627d057c0275500055060e3c0614a0053f068ff8500157b05506003c0600a00b08283f06187509008ff2711007
:4000c00070ef62e000711062e00070ef62e2007c08668fff50107f3030303030303030303030303030303030303030303030303030303030303030303030303030303030f2
:4001000030303030303030303030303030303030303030303030303030303030303030303030303030303030303030303030303030303030303030303030303030303030bf
:4001400030303030303030303030303030303030576572743a00230021ff2200606b660063156500e600e700d600b000b100b200b333b433b508b600b855b900ba10bb33bc
:40018000bc33bd00be00ff20312117224461006900600062006733683363006600d100d300d000d200e1ffe200dfffde02dd00ff70ef62000071106200006201ff70ef62f4
:4001c00003fe620200711062020162030070ef62010162040071106204386205c770ef6207c4620610711062060062070070ef620500620800711062087f62098070ef623d
:400200000b80620a007110620a00620b0070ef620900620c007110620c00620d0070ef620f00620e007110620e00620f0070ef620d00621000711062100062110070ef62ce
:400240001300621200711062120062130070ef621100621400711062140062150070ef621700621600711062160062170070ef62150070ef7f550700550938550ac7550be9
:40028000c4550800550c7f550d807c02917c01b07f1070ef500067500157567c02ac500167500157877c02ac70ef207f380210084f56fc00d00456fc01182070ef62e3004d
:4002c00010082839ffa01f4f48fc01a003711054fd18207509001008284f59fd610018207509008fd738fc7f7e43e1017f41e1fe7f4323017f4123fe7f60217f60227f5d0d
:40030000227f4f5d22084123fe71105d210862210070ef5d205d22085200602271105201602170ef4323011838fe7f081028b00420187f903c201875dff2748fef303132c1
:40034000333435363738394142434445460867676767210fffe7901918210fffe090127f4b9fea5b9fe77f5200a0069004758ff87f905f0867676767210f903818210f4075
:40038000404090307f904b0867676767210f900918210f40404090017f082608805108600818210f29102a086008530840218f530860087f082608802e082051086008181a
:4003c000210f29302a08600853084021af530860087f0826088051086008260cf0510c7110600870ef2e084051086008401057ff2e08505108600840405d08082608c0519f
:400400000860084040402e08505108600840402608c051086008182108a00479bfd3202e0c7f510c7110600870ef187f260c802e0c7f260d80510c71106008510d60097076
:40044000ef50fa906350fa905f50039f4c5052905750039f44905f905d905b50039f3a505a904550029f32505a903d50089f16505a903550019f0e505a902d50069f0650e2
:400480000e9f02502c9efe50089efa500c9ef650039ef2505a90117f80c094d4210310fff74f03ff209ede7f900c78bffc7f08193a7c010101010871105de070ef210739fb
:4004c00005d006ffe978bffe187f5001800350002900a0062607df80042e0720510760047f360720510760047f5107732120a00350017f5001800350002900a0062607f72c
:4005000080042e0708510760047f360708510760047f5107732108a00350017f2e0a032609fc260bfc510b60077110510a60055109600470ef2607fc510760047f7f4f52a0
:40054000fd64290155140048f901b00591ae80039177471401a0202e1410107bfab0042614ef9249201052fc0820511554002077fc48faffbfe548f902b00392b65000476e
:400580001401a00350017f64290155140048fd01b005916880039131471401a01e2e1410107bfeb0042614ef9203201059005115540020770048feffbfe748fd02b00392cb
:4005c000725000471401a00350017f4f52fd6455140048f901b0059123800390ec551600471401a01a1052fc082052005315913620471401a00e761677fc7bfabfe848f947
:4006000002b003922e51167f6455140048fd01b00590e9800390b2551600471401a0181059005200531590fe20471401a00e761677007bfebfea48fd02b00391f651167f73
:400640004f52fd6455140048f901b00590ae80039077551600471401a01d1052fb59fc28531590c220471401a012761677fcd00377fb7bfabfe548f902b00391b651167f8a
:400680006455140048fd01b00590718003903a551600471401a01d1052ff5900285315908520471401a01276167700d00377ff7bfebfe548fd02b003917951167f6479d013
:4006c0000490067f290190017f0871102e09022609fe51096004500c91882609fd5109600470ef490402affc500c917618900d7f6479d00490067f290190017f7110082ef4
:40070000090151096004500591581870ef531571102e09025109600470ef5002914490067f531590017f5517087a1771102e09025109600470ef6b157110c00a2e09015119
:4007400009600480082609fe51096004500591122609fd5109600470ef490402affc500591003c1700bfc390017f71102e0902510960042609fe51096004500c90e4260931
:40078000fd5109600470ef490402affc2614fe490401b0042e1401500590c7511421017f55140021ffa0072e141090017f5517087a176b1571102e09025109600450059082
:4007c000a12609fd5109600470ef490402affc5002908f2615fe490401a0042e15013c1700bfce90017f71102e09025109600470ef4714107110a00a2e0901510960048062
:40080000082609fe51096004500290562609fd5109600470ef490402affc5005904471102e0902510960042609fe5109600470ef51157f71102e090351096004500c9022f3
:400840002609fd5109600470ef490402affc7110500c900e2609fe510960045005900370ef7f78bffe7f904f90e3909a5112085111089009510f08905238fd8fff104f3dc2
:40088000fb01b00f1050007c04f950017c04d020801d3dfb02b00f1050017c04f950007c04d020800a1050007c02fc2080081052fc7c02fc20207f7101107c051c7c042c45
:4008c0007c02f17c04f77c04ce207f104f380510570550007c049c50010850505c187c032b20500008500a0852fc5305500008510508500008107c09b238fa1051067c03ad
:40090000672038fb207f104f3803510e0413511360e8520260e9405deb53065110120e5304520160e8510460e9405deb1206540050003b00c00a52005311551201800b52cf
:40094000007311ff531155120238fd207f10570150487c06bd50017c07a050017c07a020530e1050017c07a020530f1050007c07a0205310107c0833207f7e104f7c098255
:40098000207f50005301530255001066fc6cfb6b016b0251011bfa51021bf9c009530252fa1c0177fc7a00bfe3510154fa510254f97f104f380952fa540352f954023df9db
:4009c00000b0223dfa00b01d52fc530550303f0552fc0101530550003f0552fc530552fb5306814852fa110052f931801980d0263df700b0213df80ab01c56060152037349
:400a000053055202735306510501015403510609005402800456060052fc540152f70852f8085202085203087c097b38fe18530518530651055408510654075009130852b9
:400a4000073180530250801a02c01d5201530552005306510501015401510609005400520801303f05801b5201530552005306510501015401510609005400520801573fd7
:400a80000552f70852f8085202085203087c097b18540318540238fe3d0200bf803d0300bf7b3d0600a0195201530552005306510501015401510609005400502d3f055204
:400ac00001530552005306510501ff5401510609ff540050003f0552fc5405803d520553053e0554065205530552045306510501015405510609005404520153033e033f60
:400b0000055201530552005306510501ff5401510609ff540052063f055201530652053a06cfbb52fc530552fb530638f7207f303030303030303030303030303030303049
:400b40003030303030303030303030303030303030303030303030303030303030303030303030303030303030303030303030303030303030303030303030303030303075
:400b80003030303030303030303030303030303030303030303030303030303030303030303030303030303030303030303030303030303030303030303030303030303035
:400bc00030303030303030303030303030303030303030303030303030303030303030303030303030303030303030303030303030303030303030303030303030303030f5
:400c000030303030303030303030303030303030303030303030303030303030303030303030303030303030303030303030303030303030303030303030303030303030b4
:020000040010ea
:020000040020da
:0200000035d6f3
:00000001ff
