:4000000080673030303030307e3030307e3030307e3030307e3030307e3030307e3030307d03347e7e3030307d062d7e7e3030307d06337e7d06307e7d07617e7e30303013
:4000400030303030303030303030303030303030303030303030303030303030303030307e3030307e303030711062e38770ef62e33841fefb501b4e62e33855f80055f930
:4000800000711062e00270ef62e338627105627505627905627d057c02ca50005505193c0519a0053f058ff8500257035505003c0500a00b08283f05187509008ff2711054
:4000c00070ef62e000711062e00070ef62e2007c08438fff50107f303030303030303030303030303030303030303030303030303030303030303030303030303030303015
:4001000030303030303030303030303030303030303030303030303030303030303030303030303030303030303030303030303030303030303030303030303030303030bf
:40014000303030303030303030303030303030305465737400889089008a608bf03b0039003a0180908100826083f084908500866087f02b0029002a003700350036002fff
:40018000002d002e003300310032002300210022006028660063056500e63de710d600b000b100b200b333b433b508b600b855b900ba10bb33bc33bd00be00ff3831391051
:4001c0003a40282129402a403421355036402c012d102e4030213130324020212100220461006900600062006733683363006600d100d300d000d200e1ffe200dfffde0245
:40020000dd00ff074170ef62000071106200006201fe70ef6203ff620200711062020062030070ef62010062040871106204386205cf70ef6207c76206107110620600624d
:40024000070070ef620500620800711062087f62098070ef620b80620a007110620a00620b0070ef620900620c007110620c00620d0070ef620f00620e007110620e0062b7
:400280000f0070ef620d00621000711062100062110070ef621300621200711062120062130070ef621100621400711062140062150070ef62170062160071106216006276
:4002c000170070ef62150070ef7f55060855070055087f5509807c02dd7c02057f1070ef500067500157557c02f8500167500157bc7c02f870ef207f380210084f56fc0041
:40030000d00456fc01182070ef62e30010082839ffa01f4f48fc01a003711054fd18207509001008284f59fd610018207509008fd738fc7f7e43e1017f41e1fe7f43230187
:400340007f4123fe7f60217f60227f5d227f4f5d22084123fe71105d210862210070ef5d205d22085200602271105201602170ef4323011838fe7f081028b00420187f9002
:400380003c201875dff2748fef303132333435363738394142434445460867676767210fffe7901918210fffe090127f4b9fea5b9fe77f5200a0069004758ff87f905f0812
:4003c00067676767210f903818210f40404090307f904b0867676767210f900918210f40404090017f082607805107600818210f29102a076008530740218f530760087fa8
:40040000082607802e07205107600818210f29302a07600853074021af530760087f08260780510760082608f051087110600870ef2e074051076008401057ff2e07505128
:4004400007600840405d08082607c0510760084040402e07505107600840402607c051076008182108a00479bfd3202e087f51087110600870ef187f2608802e087f2609b2
:40048000805108711060085109600970ef50fa906350fa905f50039f4c5052905750039f44905f905d905b50039f3a505a904550029f32505a903d50089f16505a9035500d
:4004c000019f0e505a902d50069f06500e9f02502c9efe50089efa500c9ef650039ef2505a90117f80c094d4210310fff74f03ff209ede7f900c78bffc7f08193a7c0101e3
:4005000001010871105de070ef21073905d006ffe978bffe187f1059009fcd203dfe00b005500080113dfe06d00752fe15fe8006500617fe059e867bffbfe27f4f1052fd01
:4005400059fc9fa4203dfa00b005500080113dfa06d00752fa15fa8006500617fa059e5d7bfbbfe27f210308ff7a03009e633dfe00b005502080133dfe09d00952fe78562d
:40058000fe00800617fe0850079e3218787bffbfd77f4f52fd210308ff4a03fc9e333dfa00b005502080133dfa09d00952fa7856fa00800617fa0850079e0218787bfbbffa
:4005c000d77f4f080850409e0856000156010852003b01d0055000800350ff9de07b01bfef77003d0009bfe51818500c9de37f0010181c1e1f1f001008040201004f3803f9
:40060000540250409dcb56000056010852003d0200b005ffda8003ffdd9da27b01bfee77003d0007bfe438fd500c9da57f760a7e760b7e412bfe4137fe4382204386204333
:40064000831043871071014070fe085d285d2a7873d003760a530d510a530c5d345d367873d003760b530f510b530e6229ff6235ff622b01623701550afe550bfe4183ef49
:400680004187ef4182df4186df470c80b00e5002220ca0085001530c550dff680c6e0d680c6e0d470e80b00e5002220ea0085001530e550fff680e6e0f680e6e0f182e1085
:4006c000107e21034f085d8321fc2b0029f060835d8721fc2b0029f06087187f4183fc4187fc7f903d622e00623204511a602d500402196031550afe550bfe5d2e6229ff4a
:400700006235ff4183ef4187ef4182df4186df432b05433705432f0143e11043e10443e1207f412ffe412bfe4137fe43822043862043831043871041e1ef41e1fb41e1dff2
:400740007f511021107f2610ef510d7f510d7f2610ef510f7f510f7f2610ef7f531a5a197f7a16c0027e3c1700b012085de553145de45313185517015516ff7e438a20434a
:400780008b10085de5121453145de41a13676e1401203940b005785514ff11205f12145311551501183c1800b00e551700551600418bef418adf7e7a18a00e5517005516c1
:4007c00000418bef418adf7e41e1bf7e43e7c0900d438a20438b106239ff433b017f4f2103085d8b21fc2b00608b187f41e1bf418bfc413bfe7f418bef418adf55170055d8
:40080000160053185d3ab004623a0162dbbf43e1407f41e1bf438a20438b107f51157f551500581151123c1500bff57f55150051127f581151127f51127f51155515007fde
:40084000603a7f104f380e560d325504505505015a02060205105501005105580408283f021875090076013c0105bff2207101107c04782010520d7c03457c033d50037cb7
:4008800006c2570050647c075c7c06e350037c07cc50007c07f620809d107c081c203900a008107c082c2054045003105804082853051875090028203c0500afed107c07fb
:4008c0004c205400107c074f20540c52000502520b085001087c093c18530538ff520260e8510560e9405deb5305520413005303520a60e8510360e9405deb1205540152f6
:400900000154033d0100c00a1052037c034820800b52037311ff107c03482010570550007c04e8205a040604051051050851045c187c03b3208f6338f2208fff104f7c09c9
:4009400047510154fb207f55010055000866fc6b0151011bfbc005530177fc7a00bfef7f3030303030303030303030303030303030303030303030303030303030303030d4
:400980003030303030303030303030303030303030303030303030303030303030303030303030303030303030303030303030303030303030303030303030303030303037
:4009c00030303030303030303030303030303030303030303030303030303030303030303030303030303030303030303030303030303030303030303030303030303030f7
:400a000030303030303030303030303030303030303030303030303030303030303030303030303030303030303030303030303030303030303030303030303030303030b6
:400a40003030303030303030303030303030303030303030303030303030303030303030303030303030303030303030303030303030303030303030303030303030303076
:020000040010ea
:020000040020da
:0200000025f2e7
:00000001ff
