:4000000080673030303030307e3030307e3030307e3030307e3030307e3030307e3030307d03767e7e3030307d06467e7e3030307d064c7e7d06497e7d077a7e7e3030306d
:4000400030303030303030303030303030303030303030303030303030303030303030307e3030307e303030711062e38770ef62e33841fefb501e4e62e33855f80055f92d
:4000800000711062e00270ef62e338627105627505627905627d057c02e350005505193c051ca0053f058ff85002571c5505003c0500a00b08283f05187509008ff271101f
:4000c00070ef62e000711062e00070ef62e2007c085c8fff50107f3030303030303030303030303030303030303030303030303030303030303030303030303030303030fc
:4001000030303030303030303030303030303030303030303030303030303030303030303030303030303030303030303030303030303030303030303030303030303030bf
:4001400030303030303030303030303030303030576572743a00889089008a608bf03b0039003a0180908100826083f084908500866087f02b0029002a00370035003600f2
:400180002f002d002e00330031003200710c72217320700175fd76217720740079fd7a217b207800230021ff2200602b660063156500e63de710d600b000b100b200b333b7
:4001c000b433b508b600b855b900ba10bb33bc33bd00be00ff383139153a40282129452a403421355536402c012d152e403021313532402031211722446100690060006296
:40020000006733683363006600d100d300d000d200e1ffe200dfffde02dd00ff075a70ef62000071106200006201fe70ef6203ff620200711062020062030070ef62010085
:40024000620400711062043a6205c570ef6207c5620610711062060062070070ef620500620800711062087f62098070ef620b80620a007110620a00620b0070ef62090013
:40028000620c007110620c00620d0070ef620f00620e007110620e00620f0070ef620d00621000711062100062110070ef621300621200711062120062130070ef621100a6
:4002c000621400711062140062150070ef621700621600711062160062170070ef62150070ef7f55060055070055087f5509807c02f67c021e7f1070ef5000675001575680
:400300007c0311500167500157d57c031170ef207f380210084f56fc00d00456fc01182070ef62e30010082839ffa01f4f48fc01a003711054fd18207509001008284f5996
:40034000fd610018207509008fd738fc7f5001800350002900a0062606fd80042e0602510660047f360602510660047f5106732102a00350017f7e43e1017f41e1fe7f4364
:4003800023017f4123fe7f60217f60227f5d227f4f5d22084123fe71105d210862210070ef5d205d22085200602271105201602170ef4323011838fe7f21034f085d7b2165
:4003c000fc2b00607b187f21fc4f085d792107480004b00a4178fe2b006079187f2700182b006079437801187f417bfc7f21034f085d7721fc2b006077187f21fc4f085df7
:40040000752107480004b00a4174fe2b006075187f2700182b006075437401187f4177fc7f21034f085d7321fc2b006073187f21fc4f085d712107480004b00a4170fe2bc7
:40044000006071187f2700182b006071437001187f4173fc7f081028b00420187f903c201875dff2748fef303132333435363738394142434445460867676767210fffe71c
:40048000901918210fffe090127f4b9fea5b9fe77f5200a0069004758ff87f905f0867676767210f903818210f40404090307f904b0867676767210f900918210f404040ee
:4004c00090017f082607805107600818210f29102a076008530740218f530760087f082607802e07205107600818210f29302a07600853074021af530760087f082607806e
:40050000510760082608f051087110600870ef2e074051076008401057ff2e07505107600840405d08082607c0510760084040402e07505107600840402607c05107600850
:40054000182108a00479bfd3202e087f51087110600870ef187f2608802e087f2609805108711060085109600970ef50fa906350fa905f50039f4c5052905750039f449005
:400580005f905d905b50039f3a505a904550029f32505a903d50089f16505a903550019f0e505a902d50069f06500e9f02502c9efe50089efa500c9ef650039ef2505a90cf
:4005c000117f80c094d4210310fff74f03ff209ede7f900c78bffc7f08193a7c010101010871105de070ef21073905d006ffe978bffe187f5001800350002900a0062606d0
:40060000df80042e0620510660047f360620510660047f5106732120a00350017f5001800350002900a0062606f780042e0608510660047f360608510660047f510673213c
:4006400008a00350017f760a7e760b7e412bfe4137fe43822043862043831043871071014070fe085d285d2a7873d003760a530d510a530c5d345d367873d003760b530f53
:40068000510b530e6229ff6235ff622b01623701550afe550bfe4183ef4187ef4182df4186df470c80b00e5002220ca0085001530c550dff680c6e0d680c6e0d470e80b09b
:4006c0000e5002220ea0085001530e550fff680e6e0f680e6e0f182e10107e21034f085d8321fc2b0029f060835d8721fc2b0029f06087187f4183fc4187fc7f903d622e21
:4007000000623204511d602d5004021c6031550afe550bfe5d2e6229ff6235ff4183ef4187ef4182df4186df432b05433705432f0143e11043e10443e1207f412ffe412bad
:40074000fe4137fe43822043862043831043871041e1ef41e1fb41e1df7f511021107f2610ef510d7f510d7f2610ef510f7f510f7f2610ef7f531d5a1c7f7a16c0027e3cf1
:400780001700b012085de553145de45313185517015516ff7e438a20438b10085de5121453145de41a13676e1401203940b005785514ff11205f12145311551501183c1882
:4007c00000b00e551700551600418bef418adf7e7a18a00e551700551600418bef418adf7e41e1bf7e43e7c0900d438a20438b106239ff433b017f4f2103085d8b21fc2b93
:4008000000608b187f41e1bf418bfc413bfe7f418bef418adf55170055160053185d3ab004623a0162dbbf43e1407f41e1bf438a20438b107f51157f551500581151123ca4
:400840001500bff57f55150051127f581151127f51127f51155515007f603a7f104f38047101107c05567c037f50017c042150017c03ed50017c03b950037c06db7c06fcf7
:4008800050037c07e550007c080f7c06217c05f87c035150017c035320801c905b50020850ff08908638fe50010850ff08907c511908911838fd8fe438fc208fff104f38ef
:4008c0000510570550007c05c650010850505c187c045520500008500a0852fc5304500008510408500008107c0a2d38fa1051057c04912038fb207f107c0835203900a002
:4009000008107c084520531b501c105804082853051875090028203c0500afed107c0765205319107c076820531a7f104f380452fb54035602003d0200b0063d0301a00d28
:400940003d0200b0063d0302a039806d107c0613203901b020560100560000500008089fca38fe77010f000052011132520031801980cfe81050007c062350017c05fa209e
:400980008040107c0613203901b020560100560000500008089f9438fe77010f000052011132520031801980cfe81050017c062350007c05fa20800a1050007c038a20803e
:4009c000081052fc7c038a2038fc207f104f380256010056000052fc089ee238ff77010f000050f4130152003180530250811a02dfe538fe207f104f7c09fd207f50005362
:400a000001530255001066fc6cfb6b016b0251011bfa51021bf9c009530252fa1c0177fc7a00bfe3510154fa510254f97f104f380952fa540352f954023df900b0223dfa93
:400a400000b01d52fc530450303f0452fc0101530450003f0452fc530452fb5305814852fa110052f931801980d0263df700b0213df80ab01c5606015203735304520273b9
:400a80005305510401015403510509005402800456060052fc540152f70852f8085202085203087c09f638fe185304185305510454085105540750091308520731805302d7
:400ac00050801a02c01d5201530452005305510401015401510509005400520801303f04801b5201530452005305510401015401510509005400520801573f0452f70852c6
:400b0000f8085202085203087c09f618540318540238fe3d0200bf803d0300bf7b3d0600a0195201530452005305510401015401510509005400502d3f045201530452000b
:400b40005305510401ff5401510509ff540050003f0452fc5405803d520553043e0454065205530452045305510401015405510509005404520153033e033f0452015304e6
:400b800052005305510401ff5401510509ff540052063f045201530552053a05cfbb52fc530452fb530538f7207f3030303030303030303030303030303030303030303091
:400bc00030303030303030303030303030303030303030303030303030303030303030303030303030303030303030303030303030303030303030303030303030303030f5
:400c000030303030303030303030303030303030303030303030303030303030303030303030303030303030303030303030303030303030303030303030303030303030b4
:400c40003030303030303030303030303030303030303030303030303030303030303030303030303030303030303030303030303030303030303030303030303030303074
:400c80003030303030303030303030303030303030303030303030303030303030303030303030303030303030303030303030303030303030303030303030303030303034
:020000040010ea
:020000040020da
:0200000038ae18
:00000001ff
