:4000000080673030303030307e3030307e3030307e3030307e3030307e3030307e3030307d03767e7e3030307d06467e7e3030307d064c7e7d06497e7d077a7e7e3030306d
:4000400030303030303030303030303030303030303030303030303030303030303030307e3030307e303030711062e38770ef62e33841fefb50204e62e33855f80055f92b
:4000800000711062e00270ef62e338627105627505627905627d057c02e3500055061a3c061ea0053f068ff85002571c5506003c0600a00b08283f06187509008ff2711016
:4000c00070ef62e000711062e00070ef62e2007c085c8fff50107f3030303030303030303030303030303030303030303030303030303030303030303030303030303030fc
:4001000030303030303030303030303030303030303030303030303030303030303030303030303030303030303030303030303030303030303030303030303030303030bf
:4001400030303030303030303030303030303030576572743a00889089008a608bf03b0039003a0180908100826083f084908500866087f02b0029002a00370035003600f2
:400180002f002d002e0033003100320071fc72217320700075fd76217720740079fd7a217b2078002300210022006028660063156500e63de710d600b000b100b200b333ca
:4001c000b433b508b600b855b900ba10bb33bc33bd00be00ff383139153a40282129452a403421355536402c012d152e4030213135324020212117224461006900600062a6
:40020000006733683363006600d100d300d000d200e1ffe200dfffde02dd00ff075a70ef62000071106200006201fe70ef6203ff620200711062020062030070ef62010085
:40024000620400711062043a6205c570ef6207c5620610711062060062070070ef620500620800711062087f62098070ef620b80620a007110620a00620b0070ef62090013
:40028000620c007110620c00620d0070ef620f00620e007110620e00620f0070ef620d00621000711062100062110070ef621300621200711062120062130070ef621100a6
:4002c000621400711062140062150070ef621700621600711062160062170070ef62150070ef7f55070055080055097f550a807c02f67c021e7f1070ef500067500157567c
:400300007c0311500167500157d57c031170ef207f380210084f56fc00d00456fc01182070ef62e30010082839ffa01f4f48fc01a003711054fd18207509001008284f5996
:40034000fd610018207509008fd738fc7f5001800350002900a0062607fd80042e0702510760047f360702510760047f5107732102a00350017f7e43e1017f41e1fe7f435e
:4003800023017f4123fe7f60217f60227f5d227f4f5d22084123fe71105d210862210070ef5d205d22085200602271105201602170ef4323011838fe7f21034f085d7b2165
:4003c000fc2b00607b187f21fc4f085d792107480004b00a4178fe2b006079187f2700182b006079437801187f417bfc7f21034f085d7721fc2b006077187f21fc4f085df7
:40040000752107480004b00a4174fe2b006075187f2700182b006075437401187f4177fc7f21034f085d7321fc2b006073187f21fc4f085d712107480004b00a4170fe2bc7
:40044000006071187f2700182b006071437001187f4173fc7f081028b00420187f903c201875dff2748fef303132333435363738394142434445460867676767210fffe71c
:40048000901918210fffe090127f4b9fea5b9fe77f5200a0069004758ff87f905f0867676767210f903818210f40404090307f904b0867676767210f900918210f404040ee
:4004c00090017f082608805108600818210f29102a086008530840218f530860087f082608802e08205108600818210f29302a08600853084021af530860087f0826088062
:40050000510860082609f051097110600870ef2e084051086008401057ff2e08505108600840405d08082608c0510860084040402e08505108600840402608c05108600843
:40054000182108a00479bfd3202e097f51097110600870ef187f2609802e097f260a80510971106008510a600970ef50fa906350fa905f50039f4c5052905750039f4490fe
:400580005f905d905b50039f3a505a904550029f32505a903d50089f16505a903550019f0e505a902d50069f06500e9f02502c9efe50089efa500c9ef650039ef2505a90cf
:4005c000117f80c094d4210310fff74f03ff209ede7f900c78bffc7f08193a7c010101010871105de070ef21073905d006ffe978bffe187f5001800350002900a0062607cf
:40060000df80042e0720510760047f360720510760047f5107732120a00350017f5001800350002900a0062607f780042e0708510760047f360708510760047f5107732131
:4006400008a00350017f760b7e760c7e412bfe4137fe43822043862043831043871071014070fe085d285d2a7873d003760b530e510b530d5d345d367873d003760c53104b
:40068000510c530f6229ff6235ff622b01623701550bfe550cfe4183ef4187ef4182df4186df470d80b00e5002220da0085001530d550eff680d6e0e680d6e0e470f80b08e
:4006c0000e5002220fa0085001530f5510ff680f6e10680f6e10182e11107e21034f085d8321fc2b0029f060835d8721fc2b0029f06087187f4183fc4187fc7f903d622e19
:4007000000623204511f602d5004021e6031550bfe550cfe5d2e6229ff6235ff4183ef4187ef4182df4186df432b05433705432f0143e11043e10443e1207f412ffe412ba7
:40074000fe4137fe43822043862043831043871041e1ef41e1fb41e1df7f511121107f2611ef510e7f510e7f2611ef51107f51107f2611ef7f531f5a1e7f7a17c0027e3ce4
:400780001800b012085de553155de45314185518015517ff7e438a20438b10085de5121553155de41a14676e1501203940b005785515ff11205f13155312551601183c1973
:4007c00000b00e551800551700418bef418adf7e7a19a00e551800551700418bef418adf7e41e1bf7e43e7c0900d438a20438b106239ff433b017f4f2103085d8b21fc2b8e
:4008000000608b187f41e1bf418bfc413bfe7f418bef418adf55180055170053195d3ab004623a0162dbbf43e1407f41e1bf438a20438b107f51167f551600581251133c9d
:400840001600bff57f55160051137f581251137f51137f51165516007f603a7f104f38055604327101107c0556201052047c03877c037f50017c042150017c03ed50017cc0
:4008800003b950037c06db7c06fc50037c07e550007c080f7c06217c05f87c035120804a9088511a05015203085001087c09af18530638ff520160e8510660e9405deb53a9
:4008c00006511c121a5304520260e8510460e9405deb120654005200531d520008907e500008511b08900938fd8fb638fb208fff104f380510570550007c05c650010850a2
:40090000505c187c045520500008500a085f051b500008510508500008107c0a0338fa1051067c04912038fb207f107c0835203900a008107c084520531c501c105805086f
:400940002853061875090028203c0600afed107c076520531a107c076820531b7f104f50003bfcd0141050017c062350007c05fa511d7c038a20802f3dfc00d01910500149
:400980007c062350007c05fa20511d7311ff107c038a2080121050017c062350017c05fa50007c038a20207f104f7c09ba207f104f7c09ea510254fb207f500053015302bc
:4009c00055001066fc6cfb6b016b0251011bfa51021bf9c009530252fa1c0177fc7a00bfe3510154fa510254f97f55020055010866fc6b0251021bfbc005530277fc7a0158
:400a0000bfef7f104f380952fa540352f954023df900b0223dfa00b01d52fc530550303f0552fc0101530550003f0552fc530552fb5306814852fa110052f931801980d01c
:400a4000263df700b0213df80ab01c56060152037353055202735306510501015403510609005402800456060052fc540152f70852f8085202085203087c09a838fe185391
:400a80000518530651055408510654075009130852073180530250801a02c01d5201530552005306510501015401510609005400520801303f05801b520153055200530649
:400ac000510501015401510609005400520801573f0552f70852f8085202085203087c09a818540318540238fe3d0200bf803d0300bf7b3d0600a0195201530552005306b9
:400b0000510501015401510609005400502d3f055201530552005306510501ff5401510609ff540050003f0552fc5405803d520553053e05540652055305520453065105e7
:400b400001015405510609005404520153033e033f055201530552005306510501ff5401510609ff540052063f055201530652053a06cfbb52fc530552fb530638f7207ffd
:400b80003030303030303030303030303030303030303030303030303030303030303030303030303030303030303030303030303030303030303030303030303030303035
:400bc00030303030303030303030303030303030303030303030303030303030303030303030303030303030303030303030303030303030303030303030303030303030f5
:400c000030303030303030303030303030303030303030303030303030303030303030303030303030303030303030303030303030303030303030303030303030303030b4
:400c40003030303030303030303030303030303030303030303030303030303030303030303030303030303030303030303030303030303030303030303030303030303074
:020000040010ea
:020000040020da
:02000000383195
:00000001ff
