:4000000080673030303030307e3030307e3030307e3030307e3030307e3030307e3030307d03807e7d033d7e7d06797e7e3030307d067f7e7d067c7e7d07ad7e7e3030306a
:4000400030303030303030303030303030303030303030303030303030303030303030307e3030307e303030711062e38770ef62e33841fefb50184e62e33855f80055f933
:4000800000711062e00270ef62e338627105627505627905627d057c02d650005503163c0316a0053f038ff85002570f5503003c0300a00b08283f03187509008ff271104e
:4000c00070ef62e000711062e00070ef62e2007c088f8fff50107f3030303030303030303030303030303030303030303030303030303030303030303030303030303030c9
:4001000030303030303030303030303030303030303030303030303030303030303030303030303030303030303030303030303030303030303030303030303030303030bf
:40014000303030303030303030303030303030305465737400889089008a608bf03b0039003a0180908100826083f084908500866087f02b0029002a003700350036002fff
:40018000002d002e003300310032002300210022002700250026006028660063056500e63de710d600b000b100b200b333b433b508b600b855b900ba10bb33bc33bd00be90
:4001c00000ff383139103a40282129402a403421355036402c012d102e4030213130324020212100220024212500260061006900600062006733683363006600d100d3002a
:40020000d000d200e1ffe200dfffde02dd00ff078d70ef62000071106200006201fe70ef6203ff620200711062020062030070ef62010062040071106204106205ef70efe2
:400240006207ef620610711062060062070070ef620500620800711062087f62098070ef620b80620a007110620a00620b0070ef620900620c007110620c00620d0070efd0
:40028000620f00620e007110620e00620f0070ef620d00621000711062100062110070ef621300621200711062120062130070ef621100621400711062140062150070ef8e
:4002c000621700621600711062160062170070ef62150070ef7f55040055057f5506807c02e67c02117f1070ef500067500157557c0301500167500157c27c030170ef20a4
:400300007f380210084f56fc00d00456fc01182070ef62e30010082839ffa01f4f48fc01a003711054fd18207509001008284f59fd610018207509008fd738fc7f7e43e19b
:40034000027f41e1fd7f4327017f4127fe7f60257f60267f5d267f4f5d26084127fe71105d250862250070ef5d245d26085200602671105201602570ef4327011838fe7f7f
:400380007e43e1017f41e1fe7f4323017f4123fe7f60217f60227f5d227f4f5d22084123fe71105d210862210070ef5d205d22085200602271105201602170ef432301188a
:4003c00038fe7f081028b00420187f903c201875dff2748fef303132333435363738394142434445460867676767210fffe7901918210fffe090127f4b9fea5b9fe77f528e
:4004000000a0069004758ff87f905f0867676767210f903818210f40404090307f904b0867676767210f900918210f40404090017f082604805104600818210f29102a04b7
:400440006008530440218f530460087f082604802e04205104600818210f29302a04600853044021af530460087f08260480510460082605f051057110600870ef2e044058
:4004800051046008401057ff2e04505104600840405d08082604c0510460084040402e04505104600840402604c051046008182108a00479bfd3202e057f510571106008df
:4004c00070ef187f2605802e057f2606805105711060085106600970ef50fa906350fa905f50039f4c5052905750039f44905f905d905b50039f3a505a904550029f325047
:400500005a903d50089f16505a903550019f0e505a902d50069f06500e9f02502c9efe50089efa500c9ef650039ef2505a90117f80c094d4210310fff74f03ff209ede7fd6
:40054000900c78bffc7f08193a7c010101010871105de070ef21073905d006ffe978bffe187f1059009fcd203dfe00b005500080113dfe06d00752fe15fe8006500617fe0b
:40058000059e867bffbfe27f4f1052fd59fc9fa4203dfa00b005500080113dfa06d00752fa15fa8006500617fa059e5d7bfbbfe27f210308ff7a03009e633dfe00b005506a
:4005c0002080133dfe09d00952fe7856fe00800617fe0850079e3218787bffbfd77f4f52fd210308ff4a03fc9e333dfa00b005502080133dfa09d00952fa7856fa008006a1
:4006000017fa0850079e0218787bfbbfd77f4f080850409e0856000156010852003b01d0055000800350ff9de07b01bfef77003d0009bfe51818500c9de37f0010181c1eca
:400640001f1f001008040201004f3803540250409dcb56000056010852003d0200b005ffda8003ffdd9da27b01bfee77003d0007bfe438fd500c9da57f76077e76087e41c2
:400680002bfe4137fe43822043862043831043871071014070fe085d285d2a7873d0037607530a510753095d345d367873d0037608530c5108530b6229ff6235ff622b0179
:4006c0006237015507fe5508fe4183ef4187ef4182df4186df470980b00e50022209a00850015309550aff68096e0a68096e0a470b80b00e5002220ba0085001530b550ca2
:40070000ff680b6e0c680b6e0c182e0d107e21034f085d8321fc2b0029f060835d8721fc2b0029f06087187f4183fc4187fc7f903d622e006232045117602d5004021660e4
:40074000315507fe5508fe5d2e6229ff6235ff4183ef4187ef4182df4186df432b05433705432f0143e11043e10443e1207f412ffe412bfe4137fe438220438620438310c0
:4007800043871041e1ef41e1fb41e1df7f510d21107f260def510a7f510a7f260def510c7f510c7f260def7f53175a167f7a13c0027e3c1400b012085de553115de45310c8
:4007c000185514015513ff7e438a20438b10085de5121153115de41a10676e1101203940b005785511ff11205f0f11530e551201183c1500b00e551400551300418bef410c
:400800008adf7e7a15a00e551400551300418bef418adf7e41e1bf7e43e7c0900d438a20438b106239ff433b017f4f2103085d8b21fc2b00608b187f41e1bf418bfc413b45
:40084000fe7f418bef418adf55140055130053155d3ab004623a0162dbbf43e1407f41e1bf438a20438b107f51127f551200580e510f3c1200bff57f551200510f7f580e2f
:40088000510f7f510f7f51125512007f603a7f104f380b560a325502505503015a01060101105500005103580208283f011875090076003c0005bff2207101107c04c420fa
:4008c00010520a7c03917c03892010520a7c034e7c034650037c070e570050647c07a87c072f50037c081850007c0842208081107c0868203900a008107c0878205409508e
:400900000f105802082853031875090028203c0300afed107c0798205406107c079b20540771105de05303520070cf3a03c00d1052087c039450007c03512071105de05334
:4009400003520070cf3a03c00d1052087c035150007c03942010570550007c0534205a020602011051030851025c187c03ff208f7f38f5208fff303030303030303030308c
:400980003030303030303030303030303030303030303030303030303030303030303030303030303030303030303030303030303030303030303030303030303030303037
:4009c00030303030303030303030303030303030303030303030303030303030303030303030303030303030303030303030303030303030303030303030303030303030f7
:400a000030303030303030303030303030303030303030303030303030303030303030303030303030303030303030303030303030303030303030303030303030303030b6
:400a40003030303030303030303030303030303030303030303030303030303030303030303030303030303030303030303030303030303030303030303030303030303076
:020000040010ea
:020000040020da
:0200000026e0f8
:00000001ff
