:4000000080673030303030307e3030307e3030307e3030307e3030307e3030307e3030307d03477e7e3030307d06dc7e7e3030307d06e27e7d06df7e7d08107e7e30303043
:4000400030303030303030303030303030303030303030303030303030303030303030307e3030307e303030711062e38770ef62e33841fefb502d4e62e33855f80055f91e
:4000800000711062e00270ef62e338627105627505627905627d057c02dd50005504183c042ba0053f048ff8500257165504003c0400a00b08283f04187509008ff2711023
:4000c00070ef62e000711062e00070ef62e2007c09648fff50107f3030303030303030303030303030303030303030303030303030303030303030303030303030303030f3
:4001000030303030303030303030303030303030303030303030303030303030303030303030303030303030303030303030303030303030303030303030303030303030bf
:4001400030303030303030303030303030303030889089008a608bf03b0039003a0180908100826083f084908500866087f02b0029002a003700350036002f002d002e0044
:40018000330031003200710c722173207000750c762177207400790c7a217b2078002300210022006028660063056500e63de710d600b000b100b200b333b433b508b600dc
:4001c000b855b900ba10bb33bc33bd00be00ff383139103a40282129402a403421355036402c012d102e4030213130324020212100220461006900600062006733683363d8
:40020000006600d100d300d000d200e1ffe200dfffde02dd00ff07f070ef62000071106200006201fe70ef6203ff620200711062020062030070ef6201006204007110623e
:40024000041e6205e170ef6207e1620610711062060062070070ef620500620800711062087f62098070ef620b80620a007110620a00620b0070ef620900620c00711062ef
:400280000c00620d0070ef620f00620e007110620e00620f0070ef620d00621000711062100062110070ef621300621200711062120062130070ef6211006214007110629e
:4002c000140062150070ef621700621600711062160062170070ef62150070ef7f55050055060055077f5508807c02f07c02187f1070ef500067500157507c030b500167ad
:40030000500157cf7c030b70ef207f380210084f56fc00d00456fc01182070ef62e30010082839ffa01f4f48fc01a003711054fd18207509001008284f59fd6100182075df
:4003400009008fd738fc7f7e43e1017f41e1fe7f4323017f4123fe7f60217f60227f5d227f4f5d22084123fe71105d210862210070ef5d205d2208520060227110520160a7
:400380002170ef4323011838fe7f21034f085d7b21fc2b00607b187f21fc4f085d792107480004b00a4178fe2b006079187f2700182b006079437801187f417bfc7f2103c1
:4003c0004f085d7721fc2b006077187f21fc4f085d752107480004b00a4174fe2b006075187f2700182b006075437401187f4177fc7f21034f085d7321fc2b006073187fa0
:4004000021fc4f085d712107480004b00a4170fe2b006071187f2700182b006071437001187f4173fc7f081028b00420187f903c201875dff2748fef3031323334353637d2
:4004400038394142434445460867676767210fffe7901918210fffe090127f4b9fea5b9fe77f5200a0069004758ff87f905f0867676767210f903818210f40404090307fbe
:40048000904b0867676767210f900918210f40404090017f082606805106600818210f29102a066008530640218f530660087f082606802e06205106600818210f29302a35
:4004c00006600853064021af530660087f08260680510660082607f051077110600870ef2e064051066008401057ff2e06505106600840405d08082606c051066008404081
:40050000402e06505106600840402606c051066008182108a00479bfd3202e077f51077110600870ef187f2607802e077f2608805107711060085108600970ef50fa906364
:4005400050fa905f50039f4c5052905750039f44905f905d905b50039f3a505a904550029f32505a903d50089f16505a903550019f0e505a902d50069f06500e9f02502ce2
:400580009efe50089efa500c9ef650039ef2505a90117f80c094d4210310fff74f03ff209ede7f900c78bffc7f08193a7c010101010871105de070ef21073905d006ffe962
:4005c00078bffe187f1059009fcd203dfe00b005500080113dfe06d00752fe15fe8006500617fe059e867bffbfe27f4f1052fd59fc9fa4203dfa00b005500080113dfa06ca
:40060000d00752fa15fa8006500617fa059e5d7bfbbfe27f210308ff7a03009e633dfe00b005502080133dfe09d00952fe7856fe00800617fe0850079e3218787bffbfd7c6
:400640007f4f52fd210308ff4a03fc9e333dfa00b005502080133dfa09d00952fa7856fa00800617fa0850079e0218787bfbbfd77f4f080850409e085600015601085200ae
:400680003b01d0055000800350ff9de07b01bfef77003d0009bfe51818500c9de37f0010181c1e1f1f001008040201004f3803540250409dcb56000056010852003d020097
:4006c000b005ffda8003ffdd9da27b01bfee77003d0007bfe438fd500c9da57f76097e760a7e412bfe4137fe43822043862043831043871071014070fe085d285d2a78737d
:40070000d0037609530c5109530b5d345d367873d003760a530e510a530d6229ff6235ff622b016237015509fe550afe4183ef4187ef4182df4186df470b80b00e5002221b
:400740000ba0085001530b550cff680b6e0c680b6e0c470d80b00e5002220da0085001530d550eff680d6e0e680d6e0e182e0f107e21034f085d8321fc2b0029f060835d4e
:400780008721fc2b0029f06087187f4183fc4187fc7f903d622e00623204512c602d5004022b60315509fe550afe5d2e6229ff6235ff4183ef4187ef4182df4186df432b3b
:4007c00005433705432f0143e11043e10443e1207f412ffe412bfe4137fe43822043862043831043871041e1ef41e1fb41e1df7f510f21107f260fef510c7f510c7f260f48
:40080000ef510e7f510e7f260fef7f532c5a2b7f7a15c0027e3c1600b012085de553135de45312185516015515ff7e438a20438b10085de5121353135de41a12676e13014d
:40084000203940b005785513ff11205f11135310551401183c1700b00e551600551500418bef418adf7e7a17a00e551600551500418bef418adf7e41e1bf7e43e7c0900d0c
:40088000438a20438b106239ff433b017f4f2103085d8b21fc2b00608b187f41e1bf418bfc413bfe7f418bef418adf55160055150053175d3ab004623a0162dbbf43e1401a
:4008c0007f41e1bf438a20438b107f51147f551400581051113c1400bff57f55140051117f581051117f51117f51145514007f603a7f10570550007c059750000850185cea
:40090000187c0462207f107c08cb203900a008107c08db2053295016105803082853041875090028203c0400afed107c07fb205327107c07fe2053287f104f50003bfcd018
:400940000a10512a7c035b2080193dfc00d00d512a7311ff107c035b2080081050007c035b20207f104f38055604327101107c0527201052047c03587c035050107c040052
:4009800050107c03cc50107c039850017c03f250017c03be50017c038a50037c0771570050647c080b7c079250037c087b50007c08a52080449f4f512705015203085001ac
:4009c000087c09ff18530438ff520160e8510460e9405deb5304512912275302520260e8510260e9405deb120454005200532a5200089f4538ff9efa8fbc38fb208fff1063
:400a00004f7c0a0a510154fb207f55010055000866fc6b0151011bfbc005530177fc7a00bfef7f30303030303030303030303030303030303030303030303030303030300b
:400a40003030303030303030303030303030303030303030303030303030303030303030303030303030303030303030303030303030303030303030303030303030303076
:400a80003030303030303030303030303030303030303030303030303030303030303030303030303030303030303030303030303030303030303030303030303030303036
:400ac00030303030303030303030303030303030303030303030303030303030303030303030303030303030303030303030303030303030303030303030303030303030f6
:400b000030303030303030303030303030303030303030303030303030303030303030303030303030303030303030303030303030303030303030303030303030303030b5
:020000040010ea
:020000040020da
:02000000466850
:00000001ff
