:4000000080673030303030307e3030307e3030307e3030307e3030307e3030307e3030307d03347e7e3030307d062d7e7e3030307d06337e7d06307e7d07617e7e30303013
:4000400030303030303030303030303030303030303030303030303030303030303030307e3030307e303030711062e38770ef62e33841fefb50194e62e33855f80055f932
:4000800000711062e00270ef62e338627105627505627905627d057c02ca50005503173c0317a0053f038ff8500257035503003c0300a00b08283f03187509008ff2711064
:4000c00070ef62e000711062e00070ef62e2007c08438fff50107f303030303030303030303030303030303030303030303030303030303030303030303030303030303015
:4001000030303030303030303030303030303030303030303030303030303030303030303030303030303030303030303030303030303030303030303030303030303030bf
:40014000303030303030303030303030303030305465737400889089008a608bf03b0039003a0180908100826083f084908500866087f02b0029002a003700350036002fff
:40018000002d002e003300310032002300210022006028660063056500e63de710d600b000b100b200b333b433b508b600b855b900ba10bb33bc33bd00be00ff3831391051
:4001c0003a40282129402a403421355036402c012d102e4030213130324020212100220461006900600062006733683363006600d100d300d000d200e1ffe200dfffde0245
:40020000dd00ff074170ef62000071106200006201fe70ef6203ff620200711062020062030070ef62010062040871106204386205cf70ef6207c76206107110620600624d
:40024000070070ef620500620800711062087f62098070ef620b80620a007110620a00620b0070ef620900620c007110620c00620d0070ef620f00620e007110620e0062b7
:400280000f0070ef620d00621000711062100062110070ef621300621200711062120062130070ef621100621400711062140062150070ef62170062160071106216006276
:4002c000170070ef62150070ef7f55040855050055067f5507807c02dd7c02057f1070ef500067500157557c02f8500167500157bc7c02f870ef207f380210084f56fc0049
:40030000d00456fc01182070ef62e30010082839ffa01f4f48fc01a003711054fd18207509001008284f59fd610018207509008fd738fc7f7e43e1017f41e1fe7f43230187
:400340007f4123fe7f60217f60227f5d227f4f5d22084123fe71105d210862210070ef5d205d22085200602271105201602170ef4323011838fe7f081028b00420187f9002
:400380003c201875dff2748fef303132333435363738394142434445460867676767210fffe7901918210fffe090127f4b9fea5b9fe77f5200a0069004758ff87f905f0812
:4003c00067676767210f903818210f40404090307f904b0867676767210f900918210f40404090017f082605805105600818210f29102a056008530540218f530560087fb2
:40040000082605802e05205105600818210f29302a05600853054021af530560087f08260580510560082606f051067110600870ef2e054051056008401057ff2e05505142
:4004400005600840405d08082605c0510560084040402e05505105600840402605c051056008182108a00479bfd3202e067f51067110600870ef187f2606802e067f2607ca
:40048000805106711060085107600970ef50fa906350fa905f50039f4c5052905750039f44905f905d905b50039f3a505a904550029f32505a903d50089f16505a90355011
:4004c000019f0e505a902d50069f06500e9f02502c9efe50089efa500c9ef650039ef2505a90117f80c094d4210310fff74f03ff209ede7f900c78bffc7f08193a7c0101e3
:4005000001010871105de070ef21073905d006ffe978bffe187f1059009fcd203dfe00b005500080113dfe06d00752fe15fe8006500617fe059e867bffbfe27f4f1052fd01
:4005400059fc9fa4203dfa00b005500080113dfa06d00752fa15fa8006500617fa059e5d7bfbbfe27f210308ff7a03009e633dfe00b005502080133dfe09d00952fe78562d
:40058000fe00800617fe0850079e3218787bffbfd77f4f52fd210308ff4a03fc9e333dfa00b005502080133dfa09d00952fa7856fa00800617fa0850079e0218787bfbbffa
:4005c000d77f4f080850409e0856000156010852003b01d0055000800350ff9de07b01bfef77003d0009bfe51818500c9de37f0010181c1e1f1f001008040201004f3803f9
:40060000540250409dcb56000056010852003d0200b005ffda8003ffdd9da27b01bfee77003d0007bfe438fd500c9da57f76087e76097e412bfe4137fe4382204386204337
:40064000831043871071014070fe085d285d2a7873d0037608530b5108530a5d345d367873d0037609530d5109530c6229ff6235ff622b016237015508fe5509fe4183ef5d
:400680004187ef4182df4186df470a80b00e5002220aa0085001530a550bff680a6e0b680a6e0b470c80b00e5002220ca0085001530c550dff680c6e0d680c6e0d182e0ea7
:4006c000107e21034f085d8321fc2b0029f060835d8721fc2b0029f06087187f4183fc4187fc7f903d622e006232045118602d5004021760315508fe5509fe5d2e6229ff52
:400700006235ff4183ef4187ef4182df4186df432b05433705432f0143e11043e10443e1207f412ffe412bfe4137fe43822043862043831043871041e1ef41e1fb41e1dff2
:400740007f510e21107f260eef510b7f510b7f260eef510d7f510d7f260eef7f53185a177f7a14c0027e3c1500b012085de553125de45311185515015514ff7e438a20436a
:400780008b10085de5121253125de41a11676e1201203940b005785512ff11205f1012530f551301183c1600b00e551500551400418bef418adf7e7a16a00e5515005514df
:4007c00000418bef418adf7e41e1bf7e43e7c0900d438a20438b106239ff433b017f4f2103085d8b21fc2b00608b187f41e1bf418bfc413bfe7f418bef418adf55150055da
:40080000140053165d3ab004623a0162dbbf43e1407f41e1bf438a20438b107f51137f551300580f51103c1300bff57f55130051107f580f51107f51107f51135513007ffa
:40084000603a7f104f380b560a325502505503015a01105500005103580208283f011875090076003c0005bff2207101107c04782010520a7c03457c033d50037c06c257bb
:400880000050647c075c7c06e350037c07cc50007c07f620804f107c081c203900a008107c082c2054095003105802082853031875090028203c0300afed107c074c2054a9
:4008c00005107c074f2054061052077c0348203d0800c00110570550007c04e8201051037c03b3208fb138f5208fff3030303030303030303030303030303030303030303c
:4009000030303030303030303030303030303030303030303030303030303030303030303030303030303030303030303030303030303030303030303030303030303030b7
:400940003030303030303030303030303030303030303030303030303030303030303030303030303030303030303030303030303030303030303030303030303030303077
:400980003030303030303030303030303030303030303030303030303030303030303030303030303030303030303030303030303030303030303030303030303030303037
:4009c00030303030303030303030303030303030303030303030303030303030303030303030303030303030303030303030303030303030303030303030303030303030f7
:020000040010ea
:020000040020da
:020000001a7173
:00000001ff
